{
  "contractName": "Cert",
  "abi": [
    {
      "inputs": [],
      "stateMutability": "nonpayable",
      "type": "constructor"
    },
    {
      "inputs": [
        {
          "internalType": "uint256",
          "name": "",
          "type": "uint256"
        }
      ],
      "name": "InstAddressList",
      "outputs": [
        {
          "internalType": "address",
          "name": "",
          "type": "address"
        }
      ],
      "stateMutability": "view",
      "type": "function",
      "constant": true
    },
    {
      "inputs": [
        {
          "internalType": "uint256",
          "name": "",
          "type": "uint256"
        }
      ],
      "name": "StudAddressList",
      "outputs": [
        {
          "internalType": "address",
          "name": "",
          "type": "address"
        }
      ],
      "stateMutability": "view",
      "type": "function",
      "constant": true
    },
    {
      "inputs": [],
      "name": "admin",
      "outputs": [
        {
          "internalType": "address",
          "name": "",
          "type": "address"
        }
      ],
      "stateMutability": "view",
      "type": "function",
      "constant": true
    },
    {
      "inputs": [
        {
          "internalType": "uint256",
          "name": "",
          "type": "uint256"
        }
      ],
      "name": "certAddressList",
      "outputs": [
        {
          "internalType": "address",
          "name": "",
          "type": "address"
        }
      ],
      "stateMutability": "view",
      "type": "function",
      "constant": true
    },
    {
      "inputs": [
        {
          "internalType": "address",
          "name": "",
          "type": "address"
        }
      ],
      "name": "certificates",
      "outputs": [
        {
          "internalType": "address",
          "name": "certad",
          "type": "address"
        },
        {
          "internalType": "address",
          "name": "stud",
          "type": "address"
        },
        {
          "internalType": "address",
          "name": "inst",
          "type": "address"
        },
        {
          "internalType": "string",
          "name": "course",
          "type": "string"
        },
        {
          "internalType": "int256",
          "name": "duration",
          "type": "int256"
        },
        {
          "internalType": "bool",
          "name": "del",
          "type": "bool"
        }
      ],
      "stateMutability": "view",
      "type": "function",
      "constant": true
    },
    {
      "inputs": [],
      "name": "instcnt",
      "outputs": [
        {
          "internalType": "uint256",
          "name": "",
          "type": "uint256"
        }
      ],
      "stateMutability": "view",
      "type": "function",
      "constant": true
    },
    {
      "inputs": [
        {
          "internalType": "address",
          "name": "",
          "type": "address"
        }
      ],
      "name": "institutes",
      "outputs": [
        {
          "internalType": "string",
          "name": "name",
          "type": "string"
        },
        {
          "internalType": "string",
          "name": "acr",
          "type": "string"
        },
        {
          "internalType": "string",
          "name": "link",
          "type": "string"
        },
        {
          "internalType": "bool",
          "name": "del",
          "type": "bool"
        }
      ],
      "stateMutability": "view",
      "type": "function",
      "constant": true
    },
    {
      "inputs": [],
      "name": "studcnt",
      "outputs": [
        {
          "internalType": "uint256",
          "name": "",
          "type": "uint256"
        }
      ],
      "stateMutability": "view",
      "type": "function",
      "constant": true
    },
    {
      "inputs": [
        {
          "internalType": "address",
          "name": "",
          "type": "address"
        }
      ],
      "name": "students",
      "outputs": [
        {
          "internalType": "string",
          "name": "",
          "type": "string"
        }
      ],
      "stateMutability": "view",
      "type": "function",
      "constant": true
    },
    {
      "inputs": [
        {
          "internalType": "address",
          "name": "instad",
          "type": "address"
        },
        {
          "internalType": "string",
          "name": "_name",
          "type": "string"
        },
        {
          "internalType": "string",
          "name": "_acr",
          "type": "string"
        },
        {
          "internalType": "string",
          "name": "_link",
          "type": "string"
        },
        {
          "internalType": "string[]",
          "name": "_course",
          "type": "string[]"
        }
      ],
      "name": "addInstitute",
      "outputs": [],
      "stateMutability": "nonpayable",
      "type": "function"
    },
    {
      "inputs": [
        {
          "internalType": "address",
          "name": "instad",
          "type": "address"
        }
      ],
      "name": "viewInstitute",
      "outputs": [
        {
          "components": [
            {
              "internalType": "string",
              "name": "name",
              "type": "string"
            },
            {
              "internalType": "string",
              "name": "acr",
              "type": "string"
            },
            {
              "internalType": "string",
              "name": "link",
              "type": "string"
            },
            {
              "internalType": "string[]",
              "name": "course",
              "type": "string[]"
            },
            {
              "internalType": "bool",
              "name": "del",
              "type": "bool"
            }
          ],
          "internalType": "struct Cert.Institute",
          "name": "",
          "type": "tuple"
        }
      ],
      "stateMutability": "view",
      "type": "function",
      "constant": true
    },
    {
      "inputs": [
        {
          "internalType": "address",
          "name": "instad",
          "type": "address"
        }
      ],
      "name": "getInstituteName",
      "outputs": [
        {
          "internalType": "string",
          "name": "",
          "type": "string"
        }
      ],
      "stateMutability": "view",
      "type": "function",
      "constant": true
    },
    {
      "inputs": [
        {
          "internalType": "address",
          "name": "instad",
          "type": "address"
        },
        {
          "internalType": "string",
          "name": "_name",
          "type": "string"
        },
        {
          "internalType": "string",
          "name": "_acr",
          "type": "string"
        },
        {
          "internalType": "string",
          "name": "_link",
          "type": "string"
        },
        {
          "internalType": "string[]",
          "name": "_course",
          "type": "string[]"
        }
      ],
      "name": "updateInstitute",
      "outputs": [],
      "stateMutability": "nonpayable",
      "type": "function"
    },
    {
      "inputs": [
        {
          "internalType": "address",
          "name": "instad",
          "type": "address"
        }
      ],
      "name": "deleteInstitute",
      "outputs": [],
      "stateMutability": "nonpayable",
      "type": "function"
    },
    {
      "inputs": [],
      "name": "viewAllInstitutes",
      "outputs": [
        {
          "components": [
            {
              "internalType": "string",
              "name": "name",
              "type": "string"
            },
            {
              "internalType": "string",
              "name": "acr",
              "type": "string"
            },
            {
              "internalType": "string",
              "name": "link",
              "type": "string"
            },
            {
              "internalType": "string[]",
              "name": "course",
              "type": "string[]"
            },
            {
              "internalType": "bool",
              "name": "del",
              "type": "bool"
            }
          ],
          "internalType": "struct Cert.Institute[]",
          "name": "",
          "type": "tuple[]"
        }
      ],
      "stateMutability": "view",
      "type": "function",
      "constant": true
    },
    {
      "inputs": [
        {
          "internalType": "address",
          "name": "studad",
          "type": "address"
        },
        {
          "internalType": "string",
          "name": "_name",
          "type": "string"
        }
      ],
      "name": "addStudent",
      "outputs": [],
      "stateMutability": "nonpayable",
      "type": "function"
    },
    {
      "inputs": [
        {
          "internalType": "address",
          "name": "studentAddress",
          "type": "address"
        }
      ],
      "name": "getStudentName",
      "outputs": [
        {
          "internalType": "string",
          "name": "",
          "type": "string"
        }
      ],
      "stateMutability": "view",
      "type": "function",
      "constant": true
    },
    {
      "inputs": [
        {
          "internalType": "address",
          "name": "certad",
          "type": "address"
        },
        {
          "internalType": "address",
          "name": "instad",
          "type": "address"
        },
        {
          "internalType": "address",
          "name": "studad",
          "type": "address"
        },
        {
          "internalType": "string",
          "name": "_course",
          "type": "string"
        },
        {
          "internalType": "int256",
          "name": "dur",
          "type": "int256"
        }
      ],
      "name": "issueCertificate",
      "outputs": [],
      "stateMutability": "nonpayable",
      "type": "function"
    },
    {
      "inputs": [
        {
          "internalType": "address",
          "name": "certad",
          "type": "address"
        }
      ],
      "name": "revokeCertificate",
      "outputs": [],
      "stateMutability": "nonpayable",
      "type": "function"
    },
    {
      "inputs": [
        {
          "internalType": "address",
          "name": "certad",
          "type": "address"
        }
      ],
      "name": "viewCertificate",
      "outputs": [
        {
          "components": [
            {
              "internalType": "address",
              "name": "certad",
              "type": "address"
            },
            {
              "internalType": "address",
              "name": "stud",
              "type": "address"
            },
            {
              "internalType": "address",
              "name": "inst",
              "type": "address"
            },
            {
              "internalType": "string",
              "name": "course",
              "type": "string"
            },
            {
              "internalType": "int256",
              "name": "duration",
              "type": "int256"
            },
            {
              "internalType": "bool",
              "name": "del",
              "type": "bool"
            }
          ],
          "internalType": "struct Cert.Certificate",
          "name": "",
          "type": "tuple"
        }
      ],
      "stateMutability": "view",
      "type": "function",
      "constant": true
    },
    {
      "inputs": [
        {
          "internalType": "address",
          "name": "studad",
          "type": "address"
        }
      ],
      "name": "viewStudCert",
      "outputs": [
        {
          "components": [
            {
              "internalType": "address",
              "name": "certad",
              "type": "address"
            },
            {
              "internalType": "address",
              "name": "stud",
              "type": "address"
            },
            {
              "internalType": "address",
              "name": "inst",
              "type": "address"
            },
            {
              "internalType": "string",
              "name": "course",
              "type": "string"
            },
            {
              "internalType": "int256",
              "name": "duration",
              "type": "int256"
            },
            {
              "internalType": "bool",
              "name": "del",
              "type": "bool"
            }
          ],
          "internalType": "struct Cert.Certificate[]",
          "name": "",
          "type": "tuple[]"
        }
      ],
      "stateMutability": "view",
      "type": "function",
      "constant": true
    }
  ],
  "bytecode": "0x608060405234801561001057600080fd5b50336000806101000a81548173ffffffffffffffffffffffffffffffffffffffff021916908373ffffffffffffffffffffffffffffffffffffffff160217905550613c48806100606000396000f3fe608060405234801561001057600080fd5b50600436106101365760003560e01c80637e0e46b7116100b8578063a9d1b4651161007c578063a9d1b465146103a1578063af23ab40146103d1578063d07a8c70146103ed578063e0d379261461041d578063e6feee6a14610439578063f851a4401461045557610136565b80637e0e46b7146102ae5780638231e8e6146102e15780638f8b501c14610311578063a57d25b914610341578063a6c807a91461037157610136565b80634077ea9c116100ff5780634077ea9c1461020a5780635e8b8091146102285780635f893bfa1461024457806364dbbaa214610260578063718ef0d41461029057610136565b806216e5261461013b5780631d0a720714610170578063250e05941461018c5780632e0308fb146101bc5780633e8c2a5a146101ec575b600080fd5b61015560048036038101906101509190612b56565b610473565b60405161016796959493929190612c5f565b60405180910390f35b61018a60048036038101906101859190612e28565b6105a4565b005b6101a660048036038101906101a19190612ef5565b6108fe565b6040516101b39190612f22565b60405180910390f35b6101d660048036038101906101d19190612b56565b61093d565b6040516101e39190612f3d565b60405180910390f35b6101f4610a0e565b6040516102019190612f6e565b60405180910390f35b610212610a14565b60405161021f91906131f1565b60405180910390f35b610242600480360381019061023d9190613213565b610e8e565b005b61025e60048036038101906102599190612b56565b610f61565b005b61027a60048036038101906102759190612b56565b61104f565b6040516102879190613316565b60405180910390f35b610298611261565b6040516102a59190612f6e565b60405180910390f35b6102c860048036038101906102c39190612b56565b611267565b6040516102d89493929190613338565b60405180910390f35b6102fb60048036038101906102f69190612ef5565b61143c565b6040516103089190612f22565b60405180910390f35b61032b60048036038101906103269190612b56565b61147b565b60405161033891906134dd565b60405180910390f35b61035b60048036038101906103569190612b56565b611c67565b604051610368919061358a565b60405180910390f35b61038b60048036038101906103869190612b56565b612121565b6040516103989190612f3d565b60405180910390f35b6103bb60048036038101906103b69190612b56565b6121c1565b6040516103c89190612f3d565b60405180910390f35b6103eb60048036038101906103e69190613692565b612295565b005b61040760048036038101906104029190612ef5565b61253b565b6040516104149190612f22565b60405180910390f35b61043760048036038101906104329190612b56565b61257a565b005b610453600480360381019061044e9190613692565b61267d565b005b61045d61288d565b60405161046a9190612f22565b60405180910390f35b60076020528060005260406000206000915090508060000160009054906101000a900473ffffffffffffffffffffffffffffffffffffffff16908060010160009054906101000a900473ffffffffffffffffffffffffffffffffffffffff16908060020160009054906101000a900473ffffffffffffffffffffffffffffffffffffffff1690806003018054610508906137ac565b80601f0160208091040260200160405190810160405280929190818152602001828054610534906137ac565b80156105815780601f1061055657610100808354040283529160200191610581565b820191906000526020600020905b81548152906001019060200180831161056457829003601f168201915b5050505050908060040154908060050160009054906101000a900460ff16905086565b600160008573ffffffffffffffffffffffffffffffffffffffff1673ffffffffffffffffffffffffffffffffffffffff16815260200190815260200160002060040160009054906101000a900460ff1615610634576040517f08c379a000000000000000000000000000000000000000000000000000000000815260040161062b90613829565b60405180910390fd5b600160003373ffffffffffffffffffffffffffffffffffffffff1673ffffffffffffffffffffffffffffffffffffffff16815260200190815260200160002060040160009054906101000a900460ff16156106c4576040517f08c379a00000000000000000000000000000000000000000000000000000000081526004016106bb906138bb565b60405180910390fd5b6040518060c001604052808673ffffffffffffffffffffffffffffffffffffffff1681526020018473ffffffffffffffffffffffffffffffffffffffff1681526020018573ffffffffffffffffffffffffffffffffffffffff16815260200183815260200182815260200160001515815250600760008773ffffffffffffffffffffffffffffffffffffffff1673ffffffffffffffffffffffffffffffffffffffff16815260200190815260200160002060008201518160000160006101000a81548173ffffffffffffffffffffffffffffffffffffffff021916908373ffffffffffffffffffffffffffffffffffffffff16021790555060208201518160010160006101000a81548173ffffffffffffffffffffffffffffffffffffffff021916908373ffffffffffffffffffffffffffffffffffffffff16021790555060408201518160020160006101000a81548173ffffffffffffffffffffffffffffffffffffffff021916908373ffffffffffffffffffffffffffffffffffffffff16021790555060608201518160030190805190602001906108669291906128b1565b506080820151816004015560a08201518160050160006101000a81548160ff0219169083151502179055509050506008859080600181540180825580915050600190039060005260206000200160009091909190916101000a81548173ffffffffffffffffffffffffffffffffffffffff021916908373ffffffffffffffffffffffffffffffffffffffff1602179055505050505050565b6002818154811061090e57600080fd5b906000526020600020016000915054906101000a900473ffffffffffffffffffffffffffffffffffffffff1681565b6060600460008373ffffffffffffffffffffffffffffffffffffffff1673ffffffffffffffffffffffffffffffffffffffff1681526020019081526020016000208054610989906137ac565b80601f01602080910402602001604051908101604052809291908181526020018280546109b5906137ac565b8015610a025780601f106109d757610100808354040283529160200191610a02565b820191906000526020600020905b8154815290600101906020018083116109e557829003601f168201915b50505050509050919050565b60035481565b6060600060035467ffffffffffffffff811115610a3457610a33612cd1565b5b604051908082528060200260200182016040528015610a6d57816020015b610a5a612937565b815260200190600190039081610a525790505b5090506000805b600280549050811015610e85576001600060028381548110610a9957610a986138db565b5b9060005260206000200160009054906101000a900473ffffffffffffffffffffffffffffffffffffffff1673ffffffffffffffffffffffffffffffffffffffff1673ffffffffffffffffffffffffffffffffffffffff16815260200190815260200160002060040160009054906101000a900460ff16610e72576001600060028381548110610b2b57610b2a6138db565b5b9060005260206000200160009054906101000a900473ffffffffffffffffffffffffffffffffffffffff1673ffffffffffffffffffffffffffffffffffffffff1673ffffffffffffffffffffffffffffffffffffffff1681526020019081526020016000206040518060a0016040529081600082018054610bab906137ac565b80601f0160208091040260200160405190810160405280929190818152602001828054610bd7906137ac565b8015610c245780601f10610bf957610100808354040283529160200191610c24565b820191906000526020600020905b815481529060010190602001808311610c0757829003601f168201915b50505050508152602001600182018054610c3d906137ac565b80601f0160208091040260200160405190810160405280929190818152602001828054610c69906137ac565b8015610cb65780601f10610c8b57610100808354040283529160200191610cb6565b820191906000526020600020905b815481529060010190602001808311610c9957829003601f168201915b50505050508152602001600282018054610ccf906137ac565b80601f0160208091040260200160405190810160405280929190818152602001828054610cfb906137ac565b8015610d485780601f10610d1d57610100808354040283529160200191610d48565b820191906000526020600020905b815481529060010190602001808311610d2b57829003601f168201915b5050505050815260200160038201805480602002602001604051908101604052809291908181526020016000905b82821015610e22578382906000526020600020018054610d95906137ac565b80601f0160208091040260200160405190810160405280929190818152602001828054610dc1906137ac565b8015610e0e5780601f10610de357610100808354040283529160200191610e0e565b820191906000526020600020905b815481529060010190602001808311610df157829003601f168201915b505050505081526020019060010190610d76565b5050505081526020016004820160009054906101000a900460ff161515151581525050838381518110610e5857610e576138db565b5b60200260200101819052508180610e6e90613939565b9250505b8080610e7d90613939565b915050610a74565b50819250505090565b80600460008473ffffffffffffffffffffffffffffffffffffffff1673ffffffffffffffffffffffffffffffffffffffff1681526020019081526020016000209080519060200190610ee19291906128b1565b506005829080600181540180825580915050600190039060005260206000200160009091909190916101000a81548173ffffffffffffffffffffffffffffffffffffffff021916908373ffffffffffffffffffffffffffffffffffffffff16021790555060066000815480929190610f5890613939565b91905055505050565b600160003373ffffffffffffffffffffffffffffffffffffffff1673ffffffffffffffffffffffffffffffffffffffff16815260200190815260200160002060040160009054906101000a900460ff1615610ff1576040517f08c379a0000000000000000000000000000000000000000000000000000000008152600401610fe8906139f3565b60405180910390fd5b6001600760008373ffffffffffffffffffffffffffffffffffffffff1673ffffffffffffffffffffffffffffffffffffffff16815260200190815260200160002060050160006101000a81548160ff02191690831515021790555050565b611057612968565b600760008373ffffffffffffffffffffffffffffffffffffffff1673ffffffffffffffffffffffffffffffffffffffff1681526020019081526020016000206040518060c00160405290816000820160009054906101000a900473ffffffffffffffffffffffffffffffffffffffff1673ffffffffffffffffffffffffffffffffffffffff1673ffffffffffffffffffffffffffffffffffffffff1681526020016001820160009054906101000a900473ffffffffffffffffffffffffffffffffffffffff1673ffffffffffffffffffffffffffffffffffffffff1673ffffffffffffffffffffffffffffffffffffffff1681526020016002820160009054906101000a900473ffffffffffffffffffffffffffffffffffffffff1673ffffffffffffffffffffffffffffffffffffffff1673ffffffffffffffffffffffffffffffffffffffff1681526020016003820180546111b3906137ac565b80601f01602080910402602001604051908101604052809291908181526020018280546111df906137ac565b801561122c5780601f106112015761010080835404028352916020019161122c565b820191906000526020600020905b81548152906001019060200180831161120f57829003601f168201915b50505050508152602001600482015481526020016005820160009054906101000a900460ff1615151515815250509050919050565b60065481565b600160205280600052604060002060009150905080600001805461128a906137ac565b80601f01602080910402602001604051908101604052809291908181526020018280546112b6906137ac565b80156113035780601f106112d857610100808354040283529160200191611303565b820191906000526020600020905b8154815290600101906020018083116112e657829003601f168201915b505050505090806001018054611318906137ac565b80601f0160208091040260200160405190810160405280929190818152602001828054611344906137ac565b80156113915780601f1061136657610100808354040283529160200191611391565b820191906000526020600020905b81548152906001019060200180831161137457829003601f168201915b5050505050908060020180546113a6906137ac565b80601f01602080910402602001604051908101604052809291908181526020018280546113d2906137ac565b801561141f5780601f106113f45761010080835404028352916020019161141f565b820191906000526020600020905b81548152906001019060200180831161140257829003601f168201915b5050505050908060040160009054906101000a900460ff16905084565b6008818154811061144c57600080fd5b906000526020600020016000915054906101000a900473ffffffffffffffffffffffffffffffffffffffff1681565b60606000805b6008805490508110156117105760076000600883815481106114a6576114a56138db565b5b9060005260206000200160009054906101000a900473ffffffffffffffffffffffffffffffffffffffff1673ffffffffffffffffffffffffffffffffffffffff1673ffffffffffffffffffffffffffffffffffffffff16815260200190815260200160002060050160009054906101000a900460ff161580156115f457508373ffffffffffffffffffffffffffffffffffffffff166007600060088481548110611553576115526138db565b5b9060005260206000200160009054906101000a900473ffffffffffffffffffffffffffffffffffffffff1673ffffffffffffffffffffffffffffffffffffffff1673ffffffffffffffffffffffffffffffffffffffff16815260200190815260200160002060010160009054906101000a900473ffffffffffffffffffffffffffffffffffffffff1673ffffffffffffffffffffffffffffffffffffffff16145b156116fd57600160006007600060088581548110611615576116146138db565b5b9060005260206000200160009054906101000a900473ffffffffffffffffffffffffffffffffffffffff1673ffffffffffffffffffffffffffffffffffffffff1673ffffffffffffffffffffffffffffffffffffffff16815260200190815260200160002060020160009054906101000a900473ffffffffffffffffffffffffffffffffffffffff1673ffffffffffffffffffffffffffffffffffffffff1673ffffffffffffffffffffffffffffffffffffffff16815260200190815260200160002060040160009054906101000a900460ff166116fc5781806116f890613939565b9250505b5b808061170890613939565b915050611481565b5060008167ffffffffffffffff81111561172d5761172c612cd1565b5b60405190808252806020026020018201604052801561176657816020015b611753612968565b81526020019060019003908161174b5790505b5090506000805b600880549050811015611c5b576007600060088381548110611792576117916138db565b5b9060005260206000200160009054906101000a900473ffffffffffffffffffffffffffffffffffffffff1673ffffffffffffffffffffffffffffffffffffffff1673ffffffffffffffffffffffffffffffffffffffff16815260200190815260200160002060050160009054906101000a900460ff161580156118e057508573ffffffffffffffffffffffffffffffffffffffff16600760006008848154811061183f5761183e6138db565b5b9060005260206000200160009054906101000a900473ffffffffffffffffffffffffffffffffffffffff1673ffffffffffffffffffffffffffffffffffffffff1673ffffffffffffffffffffffffffffffffffffffff16815260200190815260200160002060010160009054906101000a900473ffffffffffffffffffffffffffffffffffffffff1673ffffffffffffffffffffffffffffffffffffffff16145b15611c4857600160006007600060088581548110611901576119006138db565b5b9060005260206000200160009054906101000a900473ffffffffffffffffffffffffffffffffffffffff1673ffffffffffffffffffffffffffffffffffffffff1673ffffffffffffffffffffffffffffffffffffffff16815260200190815260200160002060020160009054906101000a900473ffffffffffffffffffffffffffffffffffffffff1673ffffffffffffffffffffffffffffffffffffffff1673ffffffffffffffffffffffffffffffffffffffff16815260200190815260200160002060040160009054906101000a900460ff16611c475760076000600883815481106119f1576119f06138db565b5b9060005260206000200160009054906101000a900473ffffffffffffffffffffffffffffffffffffffff1673ffffffffffffffffffffffffffffffffffffffff1673ffffffffffffffffffffffffffffffffffffffff1681526020019081526020016000206040518060c00160405290816000820160009054906101000a900473ffffffffffffffffffffffffffffffffffffffff1673ffffffffffffffffffffffffffffffffffffffff1673ffffffffffffffffffffffffffffffffffffffff1681526020016001820160009054906101000a900473ffffffffffffffffffffffffffffffffffffffff1673ffffffffffffffffffffffffffffffffffffffff1673ffffffffffffffffffffffffffffffffffffffff1681526020016002820160009054906101000a900473ffffffffffffffffffffffffffffffffffffffff1673ffffffffffffffffffffffffffffffffffffffff1673ffffffffffffffffffffffffffffffffffffffff168152602001600382018054611b73906137ac565b80601f0160208091040260200160405190810160405280929190818152602001828054611b9f906137ac565b8015611bec5780601f10611bc157610100808354040283529160200191611bec565b820191906000526020600020905b815481529060010190602001808311611bcf57829003601f168201915b50505050508152602001600482015481526020016005820160009054906101000a900460ff161515151581525050838381518110611c2d57611c2c6138db565b5b60200260200101819052508180611c4390613939565b9250505b5b8080611c5390613939565b91505061176d565b50819350505050919050565b611c6f612937565b60008054906101000a900473ffffffffffffffffffffffffffffffffffffffff1673ffffffffffffffffffffffffffffffffffffffff163373ffffffffffffffffffffffffffffffffffffffff1614611cfd576040517f08c379a0000000000000000000000000000000000000000000000000000000008152600401611cf490613a85565b60405180910390fd5b600160008373ffffffffffffffffffffffffffffffffffffffff1673ffffffffffffffffffffffffffffffffffffffff16815260200190815260200160002060040160009054906101000a900460ff1615611e255760606040518060a001604052806040518060400160405280600781526020017f696e76616c69640000000000000000000000000000000000000000000000000081525081526020016040518060400160405280600381526020017f696e76000000000000000000000000000000000000000000000000000000000081525081526020016040518060400160405280600481526020017f6e756c6c0000000000000000000000000000000000000000000000000000000081525081526020018281526020016000151581525091505061211c565b600160008373ffffffffffffffffffffffffffffffffffffffff1673ffffffffffffffffffffffffffffffffffffffff1681526020019081526020016000206040518060a0016040529081600082018054611e7f906137ac565b80601f0160208091040260200160405190810160405280929190818152602001828054611eab906137ac565b8015611ef85780601f10611ecd57610100808354040283529160200191611ef8565b820191906000526020600020905b815481529060010190602001808311611edb57829003601f168201915b50505050508152602001600182018054611f11906137ac565b80601f0160208091040260200160405190810160405280929190818152602001828054611f3d906137ac565b8015611f8a5780601f10611f5f57610100808354040283529160200191611f8a565b820191906000526020600020905b815481529060010190602001808311611f6d57829003601f168201915b50505050508152602001600282018054611fa3906137ac565b80601f0160208091040260200160405190810160405280929190818152602001828054611fcf906137ac565b801561201c5780601f10611ff15761010080835404028352916020019161201c565b820191906000526020600020905b815481529060010190602001808311611fff57829003601f168201915b5050505050815260200160038201805480602002602001604051908101604052809291908181526020016000905b828210156120f6578382906000526020600020018054612069906137ac565b80601f0160208091040260200160405190810160405280929190818152602001828054612095906137ac565b80156120e25780601f106120b7576101008083540402835291602001916120e2565b820191906000526020600020905b8154815290600101906020018083116120c557829003601f168201915b50505050508152602001906001019061204a565b5050505081526020016004820160009054906101000a900460ff16151515158152505090505b919050565b60046020528060005260406000206000915090508054612140906137ac565b80601f016020809104026020016040519081016040528092919081815260200182805461216c906137ac565b80156121b95780601f1061218e576101008083540402835291602001916121b9565b820191906000526020600020905b81548152906001019060200180831161219c57829003601f168201915b505050505081565b6060600160008373ffffffffffffffffffffffffffffffffffffffff1673ffffffffffffffffffffffffffffffffffffffff1681526020019081526020016000206000018054612210906137ac565b80601f016020809104026020016040519081016040528092919081815260200182805461223c906137ac565b80156122895780601f1061225e57610100808354040283529160200191612289565b820191906000526020600020905b81548152906001019060200180831161226c57829003601f168201915b50505050509050919050565b60001515600160008773ffffffffffffffffffffffffffffffffffffffff1673ffffffffffffffffffffffffffffffffffffffff16815260200190815260200160002060040160009054906101000a900460ff1615151461232b576040517f08c379a000000000000000000000000000000000000000000000000000000000815260040161232290613af1565b60405180910390fd5b83600160008773ffffffffffffffffffffffffffffffffffffffff1673ffffffffffffffffffffffffffffffffffffffff16815260200190815260200160002060000190805190602001906123819291906128b1565b5082600160008773ffffffffffffffffffffffffffffffffffffffff1673ffffffffffffffffffffffffffffffffffffffff16815260200190815260200160002060010190805190602001906123d89291906128b1565b5081600160008773ffffffffffffffffffffffffffffffffffffffff1673ffffffffffffffffffffffffffffffffffffffff168152602001908152602001600020600201908051906020019061242f9291906128b1565b50600160008673ffffffffffffffffffffffffffffffffffffffff1673ffffffffffffffffffffffffffffffffffffffff168152602001908152602001600020600301600061247e91906129e2565b60005b815181101561253357600160008773ffffffffffffffffffffffffffffffffffffffff1673ffffffffffffffffffffffffffffffffffffffff1681526020019081526020016000206003018282815181106124df576124de6138db565b5b602002602001015190806001815401808255809150506001900390600052602060002001600090919091909150908051906020019061251f9291906128b1565b50808061252b90613939565b915050612481565b505050505050565b6005818154811061254b57600080fd5b906000526020600020016000915054906101000a900473ffffffffffffffffffffffffffffffffffffffff1681565b60008054906101000a900473ffffffffffffffffffffffffffffffffffffffff1673ffffffffffffffffffffffffffffffffffffffff163373ffffffffffffffffffffffffffffffffffffffff1614612608576040517f08c379a00000000000000000000000000000000000000000000000000000000081526004016125ff90613b5d565b60405180910390fd5b60018060008373ffffffffffffffffffffffffffffffffffffffff1673ffffffffffffffffffffffffffffffffffffffff16815260200190815260200160002060040160006101000a81548160ff0219169083151502179055506003600081548092919061267590613b7d565b919050555050565b60008054906101000a900473ffffffffffffffffffffffffffffffffffffffff1673ffffffffffffffffffffffffffffffffffffffff163373ffffffffffffffffffffffffffffffffffffffff161461270b576040517f08c379a000000000000000000000000000000000000000000000000000000000815260040161270290613bf2565b60405180910390fd5b6040518060a0016040528085815260200184815260200183815260200182815260200160001515815250600160008773ffffffffffffffffffffffffffffffffffffffff1673ffffffffffffffffffffffffffffffffffffffff16815260200190815260200160002060008201518160000190805190602001906127909291906128b1565b5060208201518160010190805190602001906127ad9291906128b1565b5060408201518160020190805190602001906127ca9291906128b1565b5060608201518160030190805190602001906127e7929190612a03565b5060808201518160040160006101000a81548160ff0219169083151502179055509050506002859080600181540180825580915050600190039060005260206000200160009091909190916101000a81548173ffffffffffffffffffffffffffffffffffffffff021916908373ffffffffffffffffffffffffffffffffffffffff1602179055506003600081548092919061288190613939565b91905055505050505050565b60008054906101000a900473ffffffffffffffffffffffffffffffffffffffff1681565b8280546128bd906137ac565b90600052602060002090601f0160209004810192826128df5760008555612926565b82601f106128f857805160ff1916838001178555612926565b82800160010185558215612926579182015b8281111561292557825182559160200191906001019061290a565b5b5090506129339190612a63565b5090565b6040518060a00160405280606081526020016060815260200160608152602001606081526020016000151581525090565b6040518060c00160405280600073ffffffffffffffffffffffffffffffffffffffff168152602001600073ffffffffffffffffffffffffffffffffffffffff168152602001600073ffffffffffffffffffffffffffffffffffffffff16815260200160608152602001600081526020016000151581525090565b5080546000825590600052602060002090810190612a009190612a80565b50565b828054828255906000526020600020908101928215612a52579160200282015b82811115612a51578251829080519060200190612a419291906128b1565b5091602001919060010190612a23565b5b509050612a5f9190612a80565b5090565b5b80821115612a7c576000816000905550600101612a64565b5090565b5b80821115612aa05760008181612a979190612aa4565b50600101612a81565b5090565b508054612ab0906137ac565b6000825580601f10612ac25750612ae1565b601f016020900490600052602060002090810190612ae09190612a63565b5b50565b6000604051905090565b600080fd5b600080fd5b600073ffffffffffffffffffffffffffffffffffffffff82169050919050565b6000612b2382612af8565b9050919050565b612b3381612b18565b8114612b3e57600080fd5b50565b600081359050612b5081612b2a565b92915050565b600060208284031215612b6c57612b6b612aee565b5b6000612b7a84828501612b41565b91505092915050565b612b8c81612b18565b82525050565b600081519050919050565b600082825260208201905092915050565b60005b83811015612bcc578082015181840152602081019050612bb1565b83811115612bdb576000848401525b50505050565b6000601f19601f8301169050919050565b6000612bfd82612b92565b612c078185612b9d565b9350612c17818560208601612bae565b612c2081612be1565b840191505092915050565b6000819050919050565b612c3e81612c2b565b82525050565b60008115159050919050565b612c5981612c44565b82525050565b600060c082019050612c746000830189612b83565b612c816020830188612b83565b612c8e6040830187612b83565b8181036060830152612ca08186612bf2565b9050612caf6080830185612c35565b612cbc60a0830184612c50565b979650505050505050565b600080fd5b600080fd5b7f4e487b7100000000000000000000000000000000000000000000000000000000600052604160045260246000fd5b612d0982612be1565b810181811067ffffffffffffffff82111715612d2857612d27612cd1565b5b80604052505050565b6000612d3b612ae4565b9050612d478282612d00565b919050565b600067ffffffffffffffff821115612d6757612d66612cd1565b5b612d7082612be1565b9050602081019050919050565b82818337600083830152505050565b6000612d9f612d9a84612d4c565b612d31565b905082815260208101848484011115612dbb57612dba612ccc565b5b612dc6848285612d7d565b509392505050565b600082601f830112612de357612de2612cc7565b5b8135612df3848260208601612d8c565b91505092915050565b612e0581612c2b565b8114612e1057600080fd5b50565b600081359050612e2281612dfc565b92915050565b600080600080600060a08688031215612e4457612e43612aee565b5b6000612e5288828901612b41565b9550506020612e6388828901612b41565b9450506040612e7488828901612b41565b935050606086013567ffffffffffffffff811115612e9557612e94612af3565b5b612ea188828901612dce565b9250506080612eb288828901612e13565b9150509295509295909350565b6000819050919050565b612ed281612ebf565b8114612edd57600080fd5b50565b600081359050612eef81612ec9565b92915050565b600060208284031215612f0b57612f0a612aee565b5b6000612f1984828501612ee0565b91505092915050565b6000602082019050612f376000830184612b83565b92915050565b60006020820190508181036000830152612f578184612bf2565b905092915050565b612f6881612ebf565b82525050565b6000602082019050612f836000830184612f5f565b92915050565b600081519050919050565b600082825260208201905092915050565b6000819050602082019050919050565b600082825260208201905092915050565b6000612fd182612b92565b612fdb8185612fb5565b9350612feb818560208601612bae565b612ff481612be1565b840191505092915050565b600081519050919050565b600082825260208201905092915050565b6000819050602082019050919050565b60006130378383612fc6565b905092915050565b6000602082019050919050565b600061305782612fff565b613061818561300a565b9350836020820285016130738561301b565b8060005b858110156130af5784840389528151613090858261302b565b945061309b8361303f565b925060208a01995050600181019050613077565b50829750879550505050505092915050565b6130ca81612c44565b82525050565b600060a08301600083015184820360008601526130ed8282612fc6565b915050602083015184820360208601526131078282612fc6565b915050604083015184820360408601526131218282612fc6565b9150506060830151848203606086015261313b828261304c565b915050608083015161315060808601826130c1565b508091505092915050565b600061316783836130d0565b905092915050565b6000602082019050919050565b600061318782612f89565b6131918185612f94565b9350836020820285016131a385612fa5565b8060005b858110156131df57848403895281516131c0858261315b565b94506131cb8361316f565b925060208a019950506001810190506131a7565b50829750879550505050505092915050565b6000602082019050818103600083015261320b818461317c565b905092915050565b6000806040838503121561322a57613229612aee565b5b600061323885828601612b41565b925050602083013567ffffffffffffffff81111561325957613258612af3565b5b61326585828601612dce565b9150509250929050565b61327881612b18565b82525050565b61328781612c2b565b82525050565b600060c0830160008301516132a5600086018261326f565b5060208301516132b8602086018261326f565b5060408301516132cb604086018261326f565b50606083015184820360608601526132e38282612fc6565b91505060808301516132f8608086018261327e565b5060a083015161330b60a08601826130c1565b508091505092915050565b60006020820190508181036000830152613330818461328d565b905092915050565b600060808201905081810360008301526133528187612bf2565b905081810360208301526133668186612bf2565b9050818103604083015261337a8185612bf2565b90506133896060830184612c50565b95945050505050565b600081519050919050565b600082825260208201905092915050565b6000819050602082019050919050565b600060c0830160008301516133d6600086018261326f565b5060208301516133e9602086018261326f565b5060408301516133fc604086018261326f565b50606083015184820360608601526134148282612fc6565b9150506080830151613429608086018261327e565b5060a083015161343c60a08601826130c1565b508091505092915050565b600061345383836133be565b905092915050565b6000602082019050919050565b600061347382613392565b61347d818561339d565b93508360208202850161348f856133ae565b8060005b858110156134cb57848403895281516134ac8582613447565b94506134b78361345b565b925060208a01995050600181019050613493565b50829750879550505050505092915050565b600060208201905081810360008301526134f78184613468565b905092915050565b600060a083016000830151848203600086015261351c8282612fc6565b915050602083015184820360208601526135368282612fc6565b915050604083015184820360408601526135508282612fc6565b9150506060830151848203606086015261356a828261304c565b915050608083015161357f60808601826130c1565b508091505092915050565b600060208201905081810360008301526135a481846134ff565b905092915050565b600067ffffffffffffffff8211156135c7576135c6612cd1565b5b602082029050602081019050919050565b600080fd5b60006135f06135eb846135ac565b612d31565b90508083825260208201905060208402830185811115613613576136126135d8565b5b835b8181101561365a57803567ffffffffffffffff81111561363857613637612cc7565b5b8086016136458982612dce565b85526020850194505050602081019050613615565b5050509392505050565b600082601f83011261367957613678612cc7565b5b81356136898482602086016135dd565b91505092915050565b600080600080600060a086880312156136ae576136ad612aee565b5b60006136bc88828901612b41565b955050602086013567ffffffffffffffff8111156136dd576136dc612af3565b5b6136e988828901612dce565b945050604086013567ffffffffffffffff81111561370a57613709612af3565b5b61371688828901612dce565b935050606086013567ffffffffffffffff81111561373757613736612af3565b5b61374388828901612dce565b925050608086013567ffffffffffffffff81111561376457613763612af3565b5b61377088828901613664565b9150509295509295909350565b7f4e487b7100000000000000000000000000000000000000000000000000000000600052602260045260246000fd5b600060028204905060018216806137c457607f821691505b6020821081036137d7576137d661377d565b5b50919050565b7f496e737469747574652069732064656c65746564000000000000000000000000600082015250565b6000613813601483612b9d565b915061381e826137dd565b602082019050919050565b6000602082019050818103600083015261384281613806565b9050919050565b7f4f6e6c792061637469766520696e73746974757465732063616e20697373756560008201527f2063657274696669636174657300000000000000000000000000000000000000602082015250565b60006138a5602d83612b9d565b91506138b082613849565b604082019050919050565b600060208201905081810360008301526138d481613898565b9050919050565b7f4e487b7100000000000000000000000000000000000000000000000000000000600052603260045260246000fd5b7f4e487b7100000000000000000000000000000000000000000000000000000000600052601160045260246000fd5b600061394482612ebf565b91507fffffffffffffffffffffffffffffffffffffffffffffffffffffffffffffffff82036139765761397561390a565b5b600182019050919050565b7f4f6e6c792061637469766520696e73746974757465732063616e207265766f6b60008201527f6520636572746966696361746573000000000000000000000000000000000000602082015250565b60006139dd602e83612b9d565b91506139e882613981565b604082019050919050565b60006020820190508181036000830152613a0c816139d0565b9050919050565b7f4f6e6c792061646d696e2063616e207669657720696e7374697475746520646560008201527f7461696c73000000000000000000000000000000000000000000000000000000602082015250565b6000613a6f602583612b9d565b9150613a7a82613a13565b604082019050919050565b60006020820190508181036000830152613a9e81613a62565b9050919050565b7f496e7374697475746520686173206265656e2064656c65746564000000000000600082015250565b6000613adb601a83612b9d565b9150613ae682613aa5565b602082019050919050565b60006020820190508181036000830152613b0a81613ace565b9050919050565b7f4f6e6c792061646d696e2063616e2064656c65746520696e7374697475746573600082015250565b6000613b47602083612b9d565b9150613b5282613b11565b602082019050919050565b60006020820190508181036000830152613b7681613b3a565b9050919050565b6000613b8882612ebf565b915060008203613b9b57613b9a61390a565b5b600182039050919050565b7f4f6e6c792061646d696e2063616e2061646420696e7374697475746573000000600082015250565b6000613bdc601d83612b9d565b9150613be782613ba6565b602082019050919050565b60006020820190508181036000830152613c0b81613bcf565b905091905056fea26469706673582212202412c5814bd96e980cfbf10e1f2c6e51f16e6df86b2a467e988dcf9daf30517564736f6c634300080d0033",
  "immutableReferences": {},
  "source": "// SPDX-License-Identifier: MIT\npragma solidity >=0.7.0 <0.9.0;\n\ncontract Cert {\n    address public admin;\n\n    constructor() {\n        admin = msg.sender;\n    }\n\n    struct Institute {\n        string name;\n        string acr;\n        string link;\n        string[] course;\n        bool del;\n    }\n\n    mapping(address => Institute) public institutes;\n    address[] public InstAddressList;\n    uint public instcnt;\n\n    function addInstitute(\n        address instad,\n        string memory _name,\n        string memory _acr,\n        string memory _link,\n        string[] memory _course\n    ) public {\n        require(msg.sender == admin, \"Only admin can add institutes\");\n\n        institutes[instad] = Institute(_name, _acr, _link, _course, false);\n        InstAddressList.push(instad);\n        instcnt++;\n    }\n\n    function viewInstitute(address instad) public view returns (Institute memory) {\n        require(msg.sender == admin, \"Only admin can view institute details\");\n\n        if (institutes[instad].del) {\n            string[] memory emptyCourses;\n            return Institute(\"invalid\", \"inv\", \"null\", emptyCourses, false);\n        }\n        \n        return institutes[instad];\n    }\n\n    function getInstituteName(address instad) public view returns (string memory) {\n        return institutes[instad].name;   \n    }   \n\n\n    function updateInstitute(\n        address instad,\n        string memory _name,\n        string memory _acr,\n        string memory _link,\n        string[] memory _course\n    ) public {\n        require(institutes[instad].del == false, \"Institute has been deleted\");\n\n        institutes[instad].name = _name;\n        institutes[instad].acr = _acr;\n        institutes[instad].link = _link;\n\n        // Reset the course array\n        delete institutes[instad].course;\n        for (uint i = 0; i < _course.length; i++) {\n            institutes[instad].course.push(_course[i]);\n        }\n    }\n\n    function deleteInstitute(address instad) public {\n        require(msg.sender == admin, \"Only admin can delete institutes\");\n\n        institutes[instad].del = true;\n        instcnt--;\n    }\n\n    function viewAllInstitutes() public view returns (Institute[] memory) {\n        Institute[] memory ans = new Institute[](instcnt);\n        uint j = 0;\n\n        for (uint i = 0; i < InstAddressList.length; i++) {\n            if (!institutes[InstAddressList[i]].del) {\n                ans[j] = institutes[InstAddressList[i]];\n                j++;\n            }\n        }\n        return ans;\n    }\n\n    mapping(address => string) public students;\n    address[] public StudAddressList;\n    uint public studcnt;\n\n    function addStudent(address studad, string memory _name) public {\n        students[studad] = _name;\n        StudAddressList.push(studad);\n        studcnt++;\n    }\n\n    function getStudentName(address studentAddress) public view returns (string memory) {\n        return students[studentAddress];   \n    }\n\n    // Updated Certificate struct with certad (certificate address)\n    struct Certificate {\n        address certad;  // Address of the certificate\n        address stud;\n        address inst;\n        string course;\n        int duration;\n        bool del;\n    }\n\n    mapping(address => Certificate) public certificates;\n    address[] public certAddressList;\n\n    function issueCertificate(\n        address certad,\n        address instad,\n        address studad,\n        string memory _course,\n        int dur\n    ) public {\n        require(!institutes[instad].del, \"Institute is deleted\");\n        require(!institutes[msg.sender].del, \"Only active institutes can issue certificates\");\n\n        certificates[certad] = Certificate(certad, studad, instad, _course, dur, false);\n        certAddressList.push(certad);\n    }\n\n    function revokeCertificate(address certad) public {\n        require(!institutes[msg.sender].del, \"Only active institutes can revoke certificates\");\n\n        certificates[certad].del = true;\n    }\n\n    function viewCertificate(address certad) public view returns (Certificate memory) {\n        return certificates[certad];\n    }\n\n    function viewStudCert(address studad) public view returns (Certificate[] memory) {\n        uint cnt = 0;\n        \n        // Count the number of valid certificates\n        for (uint i = 0; i < certAddressList.length; i++) {\n            if (!certificates[certAddressList[i]].del && certificates[certAddressList[i]].stud == studad) {\n                if (!institutes[certificates[certAddressList[i]].inst].del) {\n                    cnt++;\n                }\n            }\n        }\n\n        // Collect valid certificates\n        Certificate[] memory ans = new Certificate[](cnt);\n        uint j = 0;\n        \n        for (uint i = 0; i < certAddressList.length; i++) {\n            if (!certificates[certAddressList[i]].del && certificates[certAddressList[i]].stud == studad) {\n                if (!institutes[certificates[certAddressList[i]].inst].del) {\n                    ans[j] = certificates[certAddressList[i]];\n                    j++;\n                }\n            }\n        }\n        return ans;\n    }\n}\n",
  "sourcePath": "C:\\Users\\eshwa\\OneDrive\\Desktop\\Blockchain\\Certify-main\\contracts\\cert.sol",
  "compiler": {
    "name": "solc",
    "version": "0.8.13+commit.abaa5c0e.Emscripten.clang"
  },
  "schemaVersion": "3.4.16",
  "updatedAt": "2024-11-08T08:58:07.975Z",
  "networkType": "ethereum",
  "devdoc": {
    "kind": "dev",
    "methods": {},
    "version": 1
  },
  "userdoc": {
    "kind": "user",
    "methods": {},
    "version": 1
  }
}